:020000040800F2
:1000000000100020F5190008711900087319000884
:1000100000000000000000000000000000000000E0
:10002000000000000000000000000000751900083A
:10003000000000000000000077190008791900088E
:10004000451A0008451A0008451A0008451A000814
:10005000451A0008451A0008451A0008451A000804
:1000600000000000451A0008451A0008451A00085B
:10007000451A0008451A0008451A0008451A0008E4
:10008000451A00080000000000000000451A0008A2
:1000900000000000451A0008451A0008451A00082B
:1000A00000000000451A0008000000008519000843
:1000B0000000000000000000000000000000000040
:1000C00010B5064C2378002B07D1054B002B02D02E
:1000D000044800E000BF0123237010BDE0010020B0
:1000E00000000000281C0008044B10B5002B03D0B2
:1000F0000349044800E000BF10BDC04600000000F6
:10010000E4010020281C0008002243088B4274D31D
:1001100003098B425FD3030A8B4244D3030B8B4208
:1001200028D3030C8B420DD3FF22090212BA030C11
:100130008B4202D31212090265D0030B8B4219D3F2
:1001400000E0090AC30B8B4201D3CB03C01A524112
:10015000830B8B4201D38B03C01A5241430B8B425A
:1001600001D34B03C01A5241030B8B4201D30B0343
:10017000C01A5241C30A8B4201D3CB02C01A52416A
:10018000830A8B4201D38B02C01A5241430A8B422D
:1001900001D34B02C01A5241030A8B4201D30B0216
:1001A000C01A5241CDD2C3098B4201D3CB01C01A30
:1001B000524183098B4201D38B01C01A524143093A
:1001C0008B4201D34B01C01A524103098B4201D328
:1001D0000B01C01A5241C3088B4201D3CB00C01A95
:1001E000524183088B4201D38B00C01A524143080D
:1001F0008B4201D34B00C01A5241411A00D2014632
:10020000524110467047FFE701B5002000F006F8A4
:1002100002BDC0460029F7D076E770477047C04658
:1002200002780B78002A03D0013001319A42F7D0CE
:10023000D01A704710B5040000F0CEFDFA218900F5
:10024000FFF762FF00F0C4F90120002221004042C4
:1002500000F084F9002010BD10B5064A1368102183
:100260000B4313600020FFF7E5FF01F0FBFA0020CD
:1002700010BDC04600200240024A136801331360DB
:100280007047C0462C020020014B18687047C046DA
:100290002C02002070B5041E00D1B0E0436C002B8E
:1002A0007DD0636CDB0600D5A3E021688B68042257
:1002B0001A4000D09DE0636C524803400630FF3086
:1002C00003436364886803230340012B6DD0CB682C
:1002D00018208343A0680343CB6021680B699B000F
:1002E0009B08606803430B612168CB684648034064
:1002F000CB60A3699B03E169C9030B43216A4803EF
:100300000343606B012857D0802040010343E0681D
:1003100003432069022851D01343226B5200134338
:10032000626A012A4CD0A26AC221FF318A4202D0FD
:10033000E16A0A4313432168CA681A43CA60A26B80
:10034000802149058A420DD0012A0BD0022A09D00A
:10035000032A07D0042A05D0052A03D0062A01D093
:10036000072A0AD120684169072291434161206828
:100370004169A56B2A400A4342612268D268234939
:100380000A409A422BD0636C12229343023A1343E1
:100390006364A36C0F3A1343A36401202EE08364CB
:1003A0004022835401F088FA7BE70B68DB079BD47B
:1003B000CB681B0498D48AE71000A7E70422ABE7B8
:1003C000002903D1802252021343ACE7626C202142
:1003D0000A436264A26C1F390A43A264A3E70023A4
:1003E000A364636C03229343023A134363640020C3
:1003F00004E0636C102213436364012070BD01208C
:10040000FCE7C046FDFEFFFF1902FEFFE7FF3F834A
:1004100030B583B00400002301934033C35C012B4B
:1004200000D18AE040230122C25403689A6852072F
:1004300075D4434A4868904256D09A6A01200D68A4
:10044000A84002439A62A36B8022520593421ED0B9
:10045000012B1CD0022B1AD0032B18D0042B16D042
:10046000052B14D0062B12D0072B10D02268506910
:10047000072303408868984209D0506907239843AE
:100480005061206842698D682B40134343610B68BB
:100490001A00103A022A4CD82A4A1268102B0ED0A1
:1004A000112B09D080235B041343264A13600B6889
:1004B000102B07D0002037E08023DB03F4E78023F4
:1004C0001B04F1E7204B18682049FFF71DFE83004D
:1004D00018184300019302E0019B013B0193019B2B
:1004E000002BF9D100201FE09A6A01200D68A84076
:1004F00082439A620B681A00103A022A1BD8114AEA
:100500001268102B09D0112B05D0114B13400D4A46
:100510001360002008E00F4BF8E70F4BF6E7436C41
:10052000202213434364012040230022E25403B0FD
:1005300030BD0020F8E70020F6E70220F7E7C046CC
:1005400001100000082701400C00002040420F006D
:10055000FFFFFFFEFFFFBFFFFFFF7FFF70B500281B
:1005600011DB8408134DC034A400625903231840E2
:10057000C000FC331E008640B24389010B4083401B
:100580001343635170BDC0B20F220240083A920873
:1005900006329200084BD3185D6803242040C00047
:1005A000FF2214008440A54389010A4082402A4367
:1005B0005A60E7E700E100E000ED00E01F2318408B
:1005C0001E3B8340014A13607047C04600E100E0D3
:1005D00001380A4B98420FD8094A50600948036A0B
:1005E0001B021B0AC02109060B4303620023936010
:1005F00007331360002070470120FCE7FFFFFF0076
:1006000010E000E000ED00E0042805D0054A136882
:1006100004218B4313607047024A136804210B4383
:100620001360F8E710E000E0704710B5FFF7FCFF3B
:1006300010BD0000F0B5C64600B582B000236EE0E4
:1006400084683440A446CC68BC406246144384604D
:100650004468AC434A681209012515409D40254372
:100660004560C46826408C68BC403443C4604A6816
:10067000D20053D54A4DAE6901242643AE61AD691F
:100680002C400194019C9C08A51CAD00454EAF591F
:1006900003251D40AD000F26AE40B7439026F6055A
:1006A000B04275D0404EB04274D0404EB0426DD092
:1006B0000526AE4035003D430234A400394EA55115
:1006C0003B4C25684246D4432E0026404A68D2035C
:1006D00002D5424615432E00354D2E606D682E0022
:1006E00026404A68920302D5424615432E00304DFB
:1006F0006E60AD682E0026404A68D20202D542469E
:1007000015432E002A4DAE60ED682C404A689202D7
:1007100002D542462A431400254AD46001330A68B0
:100720001400DC4038D001259D402A409046F5D089
:100730004C68022C01D0122C0ED1DC080834A40025
:10074000275807261E40B6000F22B24097430A6979
:10075000B24016003E43265002685F000324260084
:10076000BE40F643324094464A681440BC4062465C
:10077000144304604C68621E012A00D860E7112C03
:1007800000D15DE7122C00D06BE759E7022690E715
:1007900000268EE701268CE702B004BC9046F0BD2F
:1007A000001002400000014000040048000800481A
:1007B00000040140002A01D1816270478161FCE799
:1007C00070B582B004000368DB0726D5AE4B5A68CB
:1007D0000C231340042B18D0AB4B5A680C23134046
:1007E000082B0ED06368012B3CD0002B51D1A64BB7
:1007F0001A68A6490A401A601A68A5490A401A6090
:1008000036E0A14B5B68DB03ECD59F4B1B689B0379
:1008100003D56368002B00D1ECE123689B0773D5F7
:10082000994B5B680C221A425DD0974B5A680C2397
:100830001340082B53D0E368002B00D186E0924A86
:10084000136801210B431360FFF71EFD05008E4B5B
:100850001B689B0771D4FFF717FD401B0228F6D9D0
:100860000320CAE1884A116880235B020B431360AE
:100870006368002B25D0FFF707FD0500824B1B683E
:100880009B03CAD4FFF700FD401B6428F6D9032060
:10089000B3E1052B09D07C4B1A687C490A401A60E9
:1008A0001A687B490A401A60E2E7774B1968802290
:1008B000D2020A431A601968802252020A431A605F
:1008C000D6E7FFF7E1FC05006F4B1B689B03A4D53F
:1008D000FFF7DAFC401B6428F6D903208DE16A4B50
:1008E0005B68DB03A7D4684B1B689B0704D5E368F0
:1008F000012B01D0012080E163490B68F82293436A
:100900002269D20013430B6023681B0744D5E369B7
:10091000002B2ED05C4A536A01210B435362FFF730
:10092000B3FC0500584B5B6A9B0735D4FFF7ACFC62
:10093000401B0228F6D903205FE153490B68F822D7
:1009400093432269D20013430B60DDE74E4A1368DC
:1009500001218B431360FFF797FC05004A4B1B688E
:100960009B07D1D5FFF790FC401B0228F6D9032046
:1009700043E1454A536A01218B435362FFF784FCEC
:100980000500414B5B6A9B0706D5FFF77DFC401BCA
:100990000228F6D9032030E123685B0700D47FE00A
:1009A000394BDB69DB001DD4374AD1698020400513
:1009B0000143D161D36903400193019B0125354B6C
:1009C0001B68DB0510D5A368012B21D0002B36D185
:1009D0002D4B1A6A01218A431A621A6A03318A432B
:1009E0001A621AE00025EAE72A4A116880235B00B0
:1009F0000B431360FFF748FC0600264B1B68DB0522
:100A0000E1D4FFF741FC801B6428F6D90320F4E011
:100A10001D4A136A01210B431362A368002B24D0E3
:100A2000FFF732FC0600184B1B6A9B0736D4FFF712
:100A30002BFC801B184B9842F5D90320DDE0052BD9
:100A400009D0114B1A6A01218A431A621A6A0331CA
:100A50008A431A62E1E70C4B1A6A04210A431A62BC
:100A60001A6A03390A431A62D7E7FFF70DFC06003A
:100A7000054B1B6A9B0711D5FFF706FC801B064B35
:100A80009842F5D90320B8E000100240FFFFFEFFB6
:100A9000FFFFFBFF0070004088130000012D33D0E2
:100AA0002368DB0610D56369012B33D0053351D1A0
:100AB000544A536B04218B435363536BF4318B4380
:100AC000A169C9000B435363236A002B00D193E053
:100AD0004C4A51680C220A40082A00D18FE0022BB0
:100AE0004FD0484A136848490B401360FFF7CCFBCE
:100AF0000400444B1B689B017AD5FFF7C5FB001B24
:100B00000228F6D9032078E03E4AD3693F490B40DA
:100B1000D361C5E73B4B5A6B04210A435A635A6BB6
:100B200003390A435A63FFF7AFFB0500354B5B6B94
:100B30009B0706D4FFF7A8FB401B0228F6D9032029
:100B40005BE030494B6BF8229343A269D200134318
:100B50004B63B9E72B4B5A6B04210A435A635A6B18
:100B600003398A435A63FFF78FFB0500254B5B6B04
:100B70009B07A9D5FFF788FB401B0228F6D9032065
:100B80003BE0204A136820490B401360FFF77CFBD1
:100B900005001C4B1B689B0106D5FFF775FB401B2E
:100BA0000228F6D9032028E0164BDA6A0F218A437F
:100BB000E16A0A43DA625A6815490A40A16A606A22
:100BC00001430A435A601968802252040A431A609A
:100BD000FFF75AFB04000B4B1B689B0106D4FFF781
:100BE00053FB001B0228F6D9032006E0002004E096
:100BF000002002E0012000E0002002B070BD0120D2
:100C0000FBE7C04600100240FFFFFFFEFFFFFFEFC3
:100C1000FFFFC2FF30B589B004AA174B180032C8D5
:100C200032C2110002680A606A46103313CB13C245
:100C30001B681360114B5A680C231340082B19D101
:100C4000910C0733194004A8445C0C49C96A0B4055
:100C50006946C95CD30308D463011B1B9801C01A01
:100C6000C0000419200209B030BD0548FFF74CFA56
:100C70006043F8E70248F6E7401C00080010024015
:100C800000127A0070B505000C004D4B1A68012364
:100C900013408B420BD24A490B68012293432343F2
:100CA0000B600B681A40A24201D0012070BD2B6876
:100CB0009B0706D5434A5368F0218B43A9680B4331
:100CC00053602B68DB074BD56B68012B20D0022BC0
:100CD00024D03C4A126892076FD53A494A680320EB
:100CE000824313434B60FFF7CFFA06006B68012B7A
:100CF0001AD0022B26D0334B5B680C221A422FD01D
:100D0000FFF7C2FA801B304B9842F4D90320CDE79D
:100D10002C4A12689203E0D40120C7E7294A1268DE
:100D20009201DAD40120C1E7264B5A680C23134004
:100D3000042B15D0FFF7A8FA801B234B9842F3D958
:100D40000320B3E71F4B5A680C231340082B07D02E
:100D5000FFF79AFA801B1C4B9842F3D90320A5E7B2
:100D6000174B1A6801231340A3420BD914490B688F
:100D70000122934323430B600B681A40A24201D027
:100D8000012093E72B685B0706D50E4A53680F498D
:100D90000B40E9680B435360FFF73CFF094B5A686F
:100DA00012090F2313400A4AD35CD840094B18603C
:100DB0000020FFF73FFA002078E7012076E7C046E1
:100DC000002002400010024088130000FFF8FFFFDF
:100DD000B01C00080C000020014B18687047C0468A
:100DE0000C00002010B5FFF7F7FF044B5A68120AF9
:100DF00007231340024AD35CD84010BD00100240C4
:100E0000C01C000870B582B004000368DB0335D550
:100E10003C4BDB69DB0048D43A4AD169802040056D
:100E20000143D161D36903400193019B0125364BF6
:100E30001B68DB053BD5334B1B6AC0229200134075
:100E400013D061680A409A420FD02E4B186A2F4A7D
:100E500002401E6A8021490231431962196A2C4EF0
:100E6000314019621A62C30735D4264A136A2749EA
:100E70000B4061680B431362012D3BD02368DB07F5
:100E800006D5204A136B03218B43A1680B431363E0
:100E900023689B0633D51B4A136B10218B43E168F3
:100EA0000B431363002002B070BD0025BFE7164A54
:100EB000116880235B000B431360FFF7E5F9060020
:100EC000114B1B68DB05B6D4FFF7DEF9801B6428E5
:100ED000F6D90320E7E7FFF7D7F90600094B1B6AAD
:100EE0009B07C2D4FFF7D0F9801B0A4B9842F5D973
:100EF0000320D8E7D36908490B40D361BEE700203F
:100F0000D1E7C0460010024000700040FFFCFFFF28
:100F1000FFFFFEFF88130000FFFFFFEF10B5040086
:100F200083680269134342691343C269134301682A
:100F30000A685C48024013430B60226853685A49B0
:100F40000B40E1680B435360A269236A1A4321688E
:100F50008B685648034013438B60554B1A6B032331
:100F60001340012B26D0002B05D0022B24D0032BBD
:100F700024D0102300E0002380221202E169914274
:100F80001ED0022B00D16FE05ED9042B00D179E096
:100F9000082B00D084E06368580880231B029C461D
:100FA00060446168FFF7B0F823680004000CD86063
:100FB00000202EE00423DFE70823DDE70223DBE740
:100FC000022B27D00FD9042B2FD0082B39D16368DF
:100FD000580880235B029C4660446168FFF794F8E0
:100FE00083B200200CE0002B2BD1FFF7FBFE40006A
:100FF00063685B08C0186168FFF786F883B2002059
:101000000F22190091435B10083A13400B432268EA
:10101000D36010BD63685808264B9C4660446168E5
:10102000FFF772F883B20020EAE7FFF7F3FD400014
:1010300063685B08C0186168FFF766F883B2002038
:10104000DEE701200023DBE7002B29D1FFF7CAFEF2
:1010500063685B08C0186168FFF756F823680004EE
:10106000000CD8600020D4E763685808124B9C46F7
:1010700060446168FFF748F823680004000CD860FA
:101080000020C6E7FFF7C6FD63685B08C01861680B
:10109000FFF73AF823680004000CD8600020B8E796
:1010A0000120B6E7F369FFFFFFCFFFFFFFF4FFFF6B
:1010B000001002400024F40000127A00436ADB07AB
:1010C00006D5026853682C490B40816A0B43536074
:1010D000436A9B0706D50268536828490B40C16ADA
:1010E0000B435360436A5B0706D502685368244983
:1010F0000B40016B0B435360436A1B0706D5026824
:10110000536820490B40416B0B435360436ADB0635
:1011100006D5026893681C490B40816B0B439360B2
:10112000436A9B0606D50268936818490B40C16B59
:101130000B439360436A5B060BD5026853681449FE
:101140000B40016C0B43536080235B03026C9A429B
:101150000AD0436A1B0606D5026853680D490B4046
:10116000816C0B4353607047026853680A490B4017
:10117000416C0B435360ECE7FFFFFDFFFFFFFEFFF9
:10118000FFFFFBFFFF7FFFFFFFEFFFFFFFDFFFFF23
:10119000FFFFEFFFFFFFF7FFFFFF9FFFF0B5C64622
:1011A00000B506000C0017009846069D3368DB6901
:1011B00023401B1B5A425341BB421ED16B1CF5D02E
:1011C000002D05D0FFF760F84346C01AA842EDD9BC
:1011D000326813680B490B40136032689368A3317F
:1011E000FF318B43936020236922B3540132B354FF
:1011F00048330022F254032000E0002004BC904653
:10120000F0BDC0465FFEFFFF30B583B00400002391
:10121000C366FFF739F805002368174A93420AD0DE
:1012200020236922A3540132A35448330022E254FC
:10123000002003B030BD1B681B0710D423681B6857
:101240005B07EDD580210D4B00932B000022C903D5
:101250002000FFF7A3FF0028E2D00320E9E7802168
:10126000064B00930300002289032000FFF796FF3E
:101270000028E3D00320DCE700380140FFFFFF0136
:1012800010B5041E30D06923C35C002B22D0692323
:101290002422E2542268136801218B43136020004A
:1012A000FFF73CFE012814D0636A002B18D1226896
:1012B00053680E490B405360226893682A218B4380
:1012C00093602268136829390B4313602000FFF7ED
:1012D0009BFF10BD68330022C25400F01BFBD6E711
:1012E0002000FFF7EBFEE2E70120F2E7FFB7FFFF88
:1012F00010B50024042C0ED8E200084B9B18596846
:101300000748FEF78DFF002801D00134F2E7E40022
:10131000024BE05C00E0042010BDC046881C0008C1
:10132000300200200F4B1B68012B17D00D4B012200
:101330005A600D4B0D4A1A600D4B1A6813688021D4
:101340000B431360084B04221A71064B00229A606B
:101350001A605A60DA601A615A617047024B054A96
:101360001A60E9E7FC01002000000020041D0008CD
:1013700004030020C81C000810B50F4B00229A601F
:101380005A601A601A61DA605A610C4998690A5405
:10139000D9690131D9610A48582444549A61094BEA
:1013A00004321A71084A1A60084B1A6813688021BF
:1013B0000B43136010BDC046FC010020300200202A
:1013C0003C02002000000020701D000804030020E3
:1013D00070B5040000F066FB651C435D1B0718D464
:1013E0004E4B9B69092B04DD4C4A20230921D15423
:1013F00070BD00F057FB425D03231340022B06D063
:10140000464A93694649CC5401339361F0E7203C46
:10141000F6E7424B0022424998690A549A61203209
:10142000995C0929E4D88B003E4AD3589F46FFF7C0
:101430005FFF012804D00921384A2023D154D7E77F
:101440000121F9E7FFF754FF022806D0032809D14C
:10145000324A20230221D154CAE7304A20230621F0
:10146000D154C5E72D4A20230921D154C0E72C4887
:1014700000F0E9FA002804D10921284A2023D15498
:10148000B6E70321F9E7FFF733FF002804D009216D
:10149000224A2023D154ABE70421F9E7204800F089
:1014A000D2FA002804D109211C4A2023D1549FE7F5
:1014B0000521F9E70A2C9BD1FFF734FF174A2023B7
:1014C0000021D15494E7FFF713FF002804D009212D
:1014D000124A2023D1548BE70721F9E7104800F086
:1014E000B2FA002804D109210C4A2023D1547FE705
:1014F0000821F9E70A2C00D07AE7FFF713FF074A23
:1015000020230021D15473E70A2C00D070E7FFF7A5
:1015100033FF024A20230021D15469E7FC01002057
:1015200030020020601C000870B505000368DC690B
:101530001E68220708D1A20609D5B20607D5988CE5
:10154000C0B2FFF745FF0AE01D4B6E225A71230619
:1015500001D5330604D4630601D5730620D470BDCB
:10156000842190200122C900C005FFF723F9154B03
:101570005B6A154A1268D25C002A06D092B22968CA
:101580000A8501330F4A5362E5E72A681368802110
:101590008B4313602A68136840390B431360DAE702
:1015A0002A68136840218B43136044319020002245
:1015B000C900C005FFF7FEF8024B00225A62CEE7D1
:1015C00030020020FC0100200000002030B589B06E
:1015D000184B59698020C003014359615A69024080
:1015E0000092009A596980208002014359615A692A
:1015F00002400192019A5A698021C9020A435A6144
:101600005B690B400293029B8425ED009024E40566
:10161000002229002000FFF7CDF803950123049351
:1016200000230593069303A92000FFF703F809B0F0
:1016300030BDC04600100240FEE7000000B585B096
:101640003D483E4B0360002343608360C36001223A
:101650000261042141618361C36103624362C2216B
:10166000FF318162C36203634263FEF713FE002809
:101670003FD10023019380235B01029380235B050C
:10168000039301A92C48FEF7C3FE002835D101239E
:10169000019301A92848FEF7BBFE002831D104239D
:1016A000019301A92448FEF7B3FE00282DD106239B
:1016B000019301A92048FEF7ABFE002829D107239A
:1016C000019301A91C48FEF7A3FE002825D1092398
:1016D000019301A91848FEF79BFE002822D1102390
:1016E000019301A91448FEF793FE00281FD105B00D
:1016F00000BDDC211248FFF79FFFE6211048FFF7ED
:101700009BFFEE210E48FFF797FFF6210C48FFF7ED
:1017100093FFFE210A48FFF78FFF83214900084805
:10172000FFF78AFF872149000548FFF785FF8B21D6
:1017300049000348FFF780FF880300200024014090
:10174000AC1D000810B51048104B036096231B0217
:10175000436000238360C36003610C2242618361A4
:10176000C36103623033436280235B018363802360
:101770009B01C363FFF784FD002800D110BD2E211B
:10178000FF310348FFF758FF0403002000380140F1
:10179000AC1D000800B595B011230893103B0993C8
:1017A0000D930F330E930E3B109380235B02119326
:1017B00080235B0312930023139308A8FFF700F81C
:1017C000002828D107230493053B059300230693A3
:1017D0000793012104A8FFF755FA00281FD1012320
:1017E0000093002302936846FFF70CFB00281AD1F0
:1017F000FFF7F2FAFA218900FEF786FCFEF7E8FE11
:101800000420FEF701FF0120002200214042FEF7E4
:10181000A5FE15B000BDA1210548FFF70DFFAE21C3
:101820000348FFF709FFB5210148FFF705FFC04650
:10183000AC1D0008034B1A68116890235B000B4332
:10184000136070470403002010B5FEF705FDFFF795
:10185000A1FFFFF7BBFEFFF7F1FEFFF773FFFFF7F6
:10186000E9FFFEE700B583B0124B996901221143ED
:10187000996199690A400092009ADA6980214905C4
:101880000A43DA61DB690B400193019B05200022CA
:1018900000214042FEF762FE022000220021404269
:1018A000FEF75CFE0120002200214042FEF756FEBA
:1018B00003B000BD0010024030B587B00268124B83
:1018C0009A4201D007B030BD104A91698020800053
:1018D00001439161936903400093009BD3230193DB
:1018E00003250295002403947138FF3801A9C0052F
:1018F000FEF7A0FE022301930295039401A9044878
:10190000FEF798FEDEE7C0460024014000100240CA
:101910000004004800B587B00268134B9A4201D01A
:1019200007B000BD114A91698020C0010143916157
:10193000936903400093009B0C2301930A3B02939D
:101940000023039303330493023B0593902001A9E2
:10195000C005FEF76FFE002200211B20FEF7FEFDF2
:101960001B20FEF72BFEDBE7003801400010024091
:101970007047FEE77047704710B5FEF77DFCFEF735
:1019800054FE10BD10B50248FFF7CEFD10BDC04695
:1019900004030020114B1A6801210A431A605A6897
:1019A0000F4802405A601A680E4802401A601A68CE
:1019B0000D4802401A605A680C4802405A60DA6AC0
:1019C0000F208243DA621A6B094802401A635A6B8D
:1019D0008A435A6300229A607047C0460010024052
:1019E0000CB8FF08FFFFF6FEFFFFFBFFFFFFC0FF85
:1019F000ECFEFFFF0D4885460D480E490E4A0023B8
:101A000002E0D458C4500433C4188C42F9D30B4AB2
:101A10000B4C002301E013600432A242FBD3FFF71A
:101A2000B9FF00F017F8FFF70FFFFEE700100020E6
:101A300000000020E0010020D01E0008E00100208E
:101A4000D4030020FEE710B50A22002100F0CCF8F4
:101A500010BD000070B500260C4D0D4C641BA41089
:101A6000A64209D1002600F0DFF80A4D0A4C641B9B
:101A7000A410A64205D170BDB300EB5898470136BB
:101A8000EEE7B300EB5898470136F2E7C81E0008AE
:101A9000C81E0008C81E0008CC1E0008EC300068F4
:101AA00070470000044B1B681B6A002B00D1034BDE
:101AB000EC3318687047C046100000207400002006
:101AC00082B0002900D101A9101E06D0002B06D03B
:101AD00013780B601078431E984102B070470220C3
:101AE0004042FAE7F0B51F000E0087B00590019163
:101AF00002920C983478FFF7D1FF0822001943783E
:101B0000751C134036D12D2C36D1B51C74780126A6
:101B1000002F62D0102F09D1302C07D120222B7832
:101B20009343582B54D110276C7802352D4B390034
:101B3000F31818000393FEF76DFB049101210023B5
:101B4000494202008C4618002100303909291AD870
:101B50000C00A74223DD591C09D06346824206D3FC
:101B600002D10499A14202DB0123784320182C788A
:101B70000135E9E72E00BCE72B2C01D01E00C7E79A
:101B8000B51C7478FAE721004139192901D8373C8E
:101B9000DFE721006139192901D8573CD9E75A1CE0
:101BA00008D1059A23331360029B0398002B09D1B7
:101BB00007B0F0BD002E00D04042029A002AF7D0B4
:101BC000002B01D06B1E0193029B019A1A60EFE774
:101BD0003024002FAAD10827A8E7302C9ED00A274E
:101BE000A4E7C046FFFFFF7F37B51300064A050094
:101BF0001068046A002C00D1044C0A0000942900EB
:101C0000FFF770FF3EBDC0461000002074000020AA
:101C10000B1E04D0FF2A04D98A2303608B3B1800D3
:101C200070470A700123FAE7F8B5C046F8BC08BC53
:101C30009E467047F8B5C046F8BC08BC9E46704743
:101C400002030405060708090A0B0C0D0E0F1010FD
:101C50000102030405060708090A0B0C0D0E0F10FC
:101C60002E140008441400086E140008861400089E
:101C70009C140008B4140008C6140008DC14000802
:101C8000F41400080815000801000000801D000879
:101C900002000000841D000803000000881D0008E9
:101CA000000000008C1D000804000000901D0008CA
:101CB00000000000000000000102030406070809FC
:101CC00000000000010203046B6F6D656E6461200B
:101CD000706F707261776E61210A576172746F73F1
:101CE00063206E61706965636961206E612077654C
:101CF0006A7363697520206A65737420726F776EEA
:101D0000612000006B6F6D656E646120706F707292
:101D100061776E61210A576172746F7363206E611F
:101D20007069656369613A0A77656A7363696520FA
:101D3000313A200A77656A73636965323A200A7717
:101D4000656A73636965333A200A77656A73636904
:101D50006520343A200A77656A73636965353A20ED
:101D60000A77656A73636965363A200A20000000C5
:101D70006B6F6D656E6461207A6C610A0000000013
:101D800047455400414C4C00494E00004F4E000066
:101D90004E4F5F434D4400006B6F6D656E64612074
:101DA000706F707261776E6121200A002E2E2F53A2
:101DB00072632F6D61696E2E630000004300504F07
:101DC000534958002E0000202020202020202020D1
:101DD00028282828282020202020202020202020DB
:101DE000202020202020208810101010101010100B
:101DF000101010101010100404040404040404044F
:101E000004101010101010104141414141410101D6
:101E100001010101010101010101010101010101B2
:101E200001011010101010104242424242420202C0
:101E30000202020202020202020202020202020282
:101E4000020210101010200000000000000000002E
:101E50000000000000000000000000000000000082
:101E60000000000000000000000000000000000072
:101E70000000000000000000000000000000000062
:101E80000000000000000000000000000000000052
:101E90000000000000000000000000000000000042
:101EA0000000000000000000000000000000000032
:101EB0000000000000000000000000000000000022
:081EC00000000000000000001A
:041EC800E900000825
:041ECC00C100000849
:101ED000981D0008040000000A00000000127A00AB
:101EE00014000020000000000000000000000000BE
:101EF00000000000000000000000000000000000E2
:101F000000000000000000000000000000000000D1
:101F100000000000000000000000000000000000C1
:101F200000000000000000000000000000000000B1
:101F300000000000000000000000000000000000A1
:101F4000000000004300000000000000000000004E
:101F50000000000000000000000000000000000081
:101F6000000000004300000000000000000000002E
:101F70000000000000000000000000000000000061
:101F8000000000004300000000000000000000000E
:101F90000000000000000000000000000000000041
:101FA00000000000430000000000000000000000EE
:101FB0000000000000000000000000000000000021
:101FC00000000000430000000000000000000000CE
:101FD0000000000000000000000000000000000001
:101FE00000000000430000000000000000000000AE
:101FF00000000000000000000000000000000000E1
:10200000000000004300000000000000000000008D
:1020100000000000000000000000000000000000C0
:1020200000000000111C0008C11A00080000000098
:10203000C61D0008C41D0008C51D0008C51D0008F8
:10204000C51D0008C51D0008C51D0008C51D0008E8
:10205000C51D0008C51D0008C51D0008FFFFFFFFC6
:10206000FFFFFFFFFFFFFFFFFFFF000001004153E5
:10207000434949000000000000000000000000008B
:1020800000000000000000000000000000004153BC
:10209000434949000000000000000000000000006B
:1020A0000000000000000000000000000000000030
:04000005080019F5E1
:00000001FF
