:020000040800F2
:1000000000100020D11600085D1600085F160008D9
:1000100000000000000000000000000000000000E0
:100020000000000000000000000000006116000851
:1000300000000000000000006316000865160008BC
:1000400021170008211700082117000821170008B0
:1000500021170008211700082117000821170008A0
:1000600000000000211700082117000821170008D0
:100070002117000821170008211700082117000880
:1000800021170008000000000000000021170008F0
:1000900000000000211700082117000821170008A0
:1000A00000000000211700080000000021170008D0
:1000B0000000000000000000000000000000000040
:1000C00010B5064C2378002B07D1054B002B02D02E
:1000D000044800E000BF0123237010BD040000208D
:1000E000000000006C170008044B10B5002B03D073
:1000F0000349044800E000BF10BDC04600000000F6
:10010000080000206C170008002243088B4274D3BB
:1001100003098B425FD3030A8B4244D3030B8B4208
:1001200028D3030C8B420DD3FF22090212BA030C11
:100130008B4202D31212090265D0030B8B4219D3F2
:1001400000E0090AC30B8B4201D3CB03C01A524112
:10015000830B8B4201D38B03C01A5241430B8B425A
:1001600001D34B03C01A5241030B8B4201D30B0343
:10017000C01A5241C30A8B4201D3CB02C01A52416A
:10018000830A8B4201D38B02C01A5241430A8B422D
:1001900001D34B02C01A5241030A8B4201D30B0216
:1001A000C01A5241CDD2C3098B4201D3CB01C01A30
:1001B000524183098B4201D38B01C01A524143093A
:1001C0008B4201D34B01C01A524103098B4201D328
:1001D0000B01C01A5241C3088B4201D3CB00C01A95
:1001E000524183088B4201D38B00C01A524143080D
:1001F0008B4201D34B00C01A5241411A00D2014632
:10020000524110467047FFE701B5002000F006F8A4
:1002100002BDC0460029F7D076E770477047C04658
:1002200010B5040000F0C4FDFA218900FFF76CFF4F
:1002300000F0BAF9012000222100404200F084F9C8
:10024000002010BD10B5064A136810210B4313603F
:100250000020FFF7E5FF01F083F9002010BDC04644
:1002600000200240024A1368013313607047C04601
:1002700020000020014B18687047C0462000002075
:1002800070B5041E00D1B0E0436C002B7DD0636CD0
:10029000DB0600D5A3E021688B6804221A4000D059
:1002A0009DE0636C524803400630FF3003436364B3
:1002B000886803230340012B6DD0CB68182083434B
:1002C000A0680343CB6021680B699B009B086068B2
:1002D00003430B612168CB6846480340CB60A369A8
:1002E0009B03E169C9030B43216A48030343606B25
:1002F000012857D0802040010343E0680343206970
:10030000022851D01343226B52001343626A012A20
:100310004CD0A26AC221FF318A4202D0E16A0A436C
:1003200013432168CA681A43CA60A26B8021490539
:100330008A420DD0012A0BD0022A09D0032A07D005
:10034000042A05D0052A03D0062A01D0072A0AD19B
:100350002068416907229143416120684169A56B8A
:100360002A400A4342612268D26823490A409A42DD
:100370002BD0636C12229343023A13436364A36C41
:100380000F3A1343A36401202EE083644022835478
:1003900001F010F97BE70B68DB079BD4CB681B04EB
:1003A00098D48AE71000A7E70422ABE7002903D11D
:1003B000802252021343ACE7626C20210A4362643C
:1003C000A26C1F390A43A264A3E70023A364636CF1
:1003D00003229343023A13436364002004E0636CF6
:1003E000102213436364012070BD0120FCE7C04666
:1003F000FDFEFFFF1902FEFFE7FF3F8330B583B02C
:100400000400002301934033C35C012B00D18AE038
:1004100040230122C25403689A68520775D4434AA4
:100420004868904256D09A6A01200D68A84002435D
:100430009A62A36B8022520593421ED0012B1CD0DE
:10044000022B1AD0032B18D0042B16D0052B14D056
:10045000062B12D0072B10D02268506907230340C7
:100460008868984209D050690723984350612068F2
:1004700042698D682B40134343610B681A00103AA0
:10048000022A4CD82A4A1268102B0ED0112B09D000
:1004900080235B041343264A13600B68102B07D09C
:1004A000002037E08023DB03F4E780231B04F1E71F
:1004B000204B18682049FFF727FE830018184300D7
:1004C000019302E0019B013B0193019B002BF9D1B9
:1004D00000201FE09A6A01200D68A84082439A62BA
:1004E0000B681A00103A022A1BD8114A1268102B06
:1004F00009D0112B05D0114B13400D4A1360002079
:1005000008E00F4BF8E70F4BF6E7436C202213434C
:100510004364012040230022E25403B030BD002098
:10052000F8E70020F6E70220F7E7C04601100000D8
:10053000082701400000002040420F00FFFFFFFE9F
:10054000FFFFBFFFFFFF7FFF70B5002811DB8408AE
:10055000134DC034A400625903231840C000FC337B
:100560001E008640B24389010B4083401343635110
:1005700070BDC0B20F220240083A920806329200C3
:10058000084BD3185D6803242040C000FF221400EC
:100590008440A54389010A4082402A435A60E7E724
:1005A00000E100E000ED00E001380A4B98420FD86E
:1005B000094A50600948036A1B021B0AC021090648
:1005C0000B430362002393600733136000207047DE
:1005D0000120FCE7FFFFFF0010E000E000ED00E07D
:1005E000042805D0054A136804218B431360704723
:1005F000024A136804210B431360F8E710E000E09F
:10060000704710B5FFF7FCFF10BD0000F0B5C646FF
:1006100000B582B000236EE084683440A446CC6804
:10062000BC406246144384604468AC434A68120983
:10063000012515409D4025434560C46826408C68CF
:10064000BC403443C4604A68D20053D54A4DAE69B9
:1006500001242643AE61AD692C400194019C9C08A5
:10066000A51CAD00454EAF5903251D40AD000F261A
:10067000AE40B7439026F605B04275D0404EB0422A
:1006800074D0404EB0426DD00526AE4035003D439B
:100690000234A400394EA5513B4C25684246D44350
:1006A0002E0026404A68D20302D5424615432E004A
:1006B000354D2E606D682E0026404A68920302D5A3
:1006C000424615432E00304D6E60AD682E00264028
:1006D0004A68D20202D5424615432E002A4DAE602A
:1006E000ED682C404A68920202D542462A43140023
:1006F000254AD46001330A681400DC4038D0012553
:100700009D402A409046F5D04C68022C01D0122C16
:100710000ED1DC080834A400275807261E40B60076
:100720000F22B24097430A69B24016003E4326505A
:1007300002685F0003242600BE40F6433240944620
:100740004A681440BC406246144304604C68621E10
:10075000012A00D860E7112C00D15DE7122C00D0EF
:100760006BE759E7022690E700268EE701268CE723
:1007700002B004BC9046F0BD0010024000000140F1
:10078000000400480008004800040140002A01D18C
:10079000816270478161FCE770B582B00400036834
:1007A000DB0726D5AE4B5A680C231340042B18D018
:1007B000AB4B5A680C231340082B0ED06368012BF7
:1007C0003CD0002B51D1A64B1A68A6490A401A60AA
:1007D0001A68A5490A401A6036E0A14B5B68DB0342
:1007E000ECD59F4B1B689B0303D56368002B00D19E
:1007F000ECE123689B0773D5994B5B680C221A4286
:100800005DD0974B5A680C231340082B53D0E368F4
:10081000002B00D186E0924A136801210B4313603C
:10082000FFF728FD05008E4B1B689B0771D4FFF76F
:1008300021FD401B0228F6D90320CAE1884A11682D
:1008400080235B020B4313606368002B25D0FFF706
:1008500011FD0500824B1B689B03CAD4FFF70AFDFC
:10086000401B6428F6D90320B3E1052B09D07C4B4B
:100870001A687C490A401A601A687B490A401A6063
:10088000E2E7774B19688022D2020A431A6019689E
:10089000802252020A431A60D6E7FFF7EBFC0500FC
:1008A0006F4B1B689B03A4D5FFF7E4FC401B642837
:1008B000F6D903208DE16A4B5B68DB03A7D4684B54
:1008C0001B689B0704D5E368012B01D0012080E160
:1008D00063490B68F82293432269D20013430B60EB
:1008E00023681B0744D5E369002B2ED05C4A536A6A
:1008F00001210B435362FFF7BDFC0500584B5B6AB7
:100900009B0735D4FFF7B6FC401B0228F6D903201D
:100910005FE153490B68F82293432269D2001343E5
:100920000B60DDE74E4A136801218B431360FFF72C
:10093000A1FC05004A4B1B689B07D1D5FFF79AFC29
:10094000401B0228F6D9032043E1454A536A01219E
:100950008B435362FFF78EFC0500414B5B6A9B079C
:1009600006D5FFF787FC401B0228F6D9032030E1AB
:1009700023685B0700D47FE0394BDB69DB001DD4C3
:10098000374AD169802040050143D161D3690340D2
:100990000193019B0125354B1B68DB0510D5A3682E
:1009A000012B21D0002B36D12D4B1A6A01218A430D
:1009B0001A621A6A03318A431A621AE00025EAE7CA
:1009C0002A4A116880235B000B431360FFF752FC37
:1009D0000600264B1B68DB05E1D4FFF74BFC801BB0
:1009E0006428F6D90320F4E01D4A136A01210B4361
:1009F0001362A368002B24D0FFF73CFC0600184BC1
:100A00001B6A9B0736D4FFF735FC801B184B9842B6
:100A1000F5D90320DDE0052B09D0114B1A6A01211D
:100A20008A431A621A6A03318A431A62E1E70C4B5D
:100A30001A6A04210A431A621A6A03390A431A62BB
:100A4000D7E7FFF717FC0600054B1B6A9B0711D57C
:100A5000FFF710FC801B064B9842F5D90320B8E045
:100A600000100240FFFFFEFFFFFFFBFF0070004091
:100A700088130000012D33D02368DB0610D563698D
:100A8000012B33D0053351D1544A536B04218B438E
:100A90005363536BF4318B43A169C9000B43536318
:100AA000236A002B00D193E04C4A51680C220A4083
:100AB000082A00D18FE0022B4FD0484A13684849DA
:100AC0000B401360FFF7D6FB0400444B1B689B01EF
:100AD0007AD5FFF7CFFB001B0228F6D9032078E078
:100AE0003E4AD3693F490B40D361C5E73B4B5A6B44
:100AF00004210A435A635A6B03390A435A63FFF7C6
:100B0000B9FB0500354B5B6B9B0706D4FFF7B2FBC7
:100B1000401B0228F6D903205BE030494B6BF822DA
:100B20009343A269D20013434B63B9E72B4B5A6B33
:100B300004210A435A635A6B03398A435A63FFF705
:100B400099FB0500254B5B6B9B07A9D5FFF792FB33
:100B5000401B0228F6D903203BE0204A13682049B5
:100B60000B401360FFF786FB05001C4B1B689B01C5
:100B700006D5FFF77FFB401B0228F6D9032028E0AB
:100B8000164BDA6A0F218A43E16A0A43DA625A682D
:100B900015490A40A16A606A01430A435A6019680C
:100BA000802252040A431A60FFF764FB04000B4BD7
:100BB0001B689B0106D4FFF75DFB001B0228F6D9DA
:100BC000032006E0002004E0002002E0012000E015
:100BD000002002B070BD0120FBE7C04600100240BB
:100BE000FFFFFFFEFFFFFFEFFFFFC2FF30B589B041
:100BF00004AA174B180032C832C2110002680A60FA
:100C00006A46103313CB13C21B681360114B5A682A
:100C10000C231340082B19D1910C0733194004A859
:100C2000445C0C49C96A0B406946C95CD30308D4CB
:100C300063011B1B9801C01AC0000419200209B0EF
:100C400030BD0548FFF760FA6043F8E70248F6E771
:100C5000841700080010024000127A0070B50500E9
:100C60000C004D4B1A68012313408B420BD24A49AA
:100C70000B680122934323430B600B681A40A24286
:100C800001D0012070BD2B689B0706D5434A5368ED
:100C9000F0218B43A9680B4353602B68DB074BD5CE
:100CA0006B68012B20D0022B24D03C4A126892079B
:100CB0006FD53A494A680320824313434B60FFF7DC
:100CC000D9FA06006B68012B1AD0022B26D0334BC1
:100CD0005B680C221A422FD0FFF7CCFA801B304BF6
:100CE0009842F4D90320CDE72C4A12689203E0D44D
:100CF0000120C7E7294A12689201DAD40120C1E72E
:100D0000264B5A680C231340042B15D0FFF7B2FA78
:100D1000801B234B9842F3D90320B3E71F4B5A683B
:100D20000C231340082B07D0FFF7A4FA801B1C4BA1
:100D30009842F3D90320A5E7174B1A680123134003
:100D4000A3420BD914490B680122934323430B6040
:100D50000B681A40A24201D0012093E72B685B0781
:100D600006D50E4A53680F490B40E9680B435360A0
:100D7000FFF73CFF094B5A6812090F2313400A4A38
:100D8000D35CD840094B18600020FFF749FA0020D7
:100D900078E7012076E7C0460020024000100240BC
:100DA00088130000FFF8FFFFA417000800000020D0
:100DB000014B18687047C0460000002010B5FFF7CF
:100DC000F7FF044B5A68120A07231340024AD35C08
:100DD000D84010BD00100240B417000870B582B0B2
:100DE00004000368DB0335D53C4BDB69DB0048D4EA
:100DF0003A4AD169802040050143D161D36903405B
:100E00000193019B0125364B1B68DB053BD5334B1A
:100E10001B6AC0229200134013D061680A409A42B4
:100E20000FD02E4B186A2F4A02401E6A80214902B9
:100E300031431962196A2C4E314019621A62C30794
:100E400035D4264A136A27490B4061680B43136265
:100E5000012D3BD02368DB0706D5204A136B032105
:100E60008B43A1680B43136323689B0633D51B4A4E
:100E7000136B10218B43E1680B431363002002B016
:100E800070BD0025BFE7164A116880235B000B4345
:100E90001360FFF7EFF90600114B1B68DB05B6D4B2
:100EA000FFF7E8F9801B6428F6D90320E7E7FFF78E
:100EB000E1F90600094B1B6A9B07C2D4FFF7DAF978
:100EC000801B0A4B9842F5D90320D8E7D36908491B
:100ED0000B40D361BEE70020D1E7C04600100240BE
:100EE00000700040FFFCFFFFFFFFFEFF88130000C3
:100EF000FFFFFFEF10B504008368026913434269E6
:100F00001343C269134301680A685C4802401343F3
:100F10000B60226853685A490B40E1680B435360E9
:100F2000A269236A1A4321688B6856480340134319
:100F30008B60554B1A6B03231340012B26D0002BDB
:100F400005D0022B24D0032B24D0102300E0002353
:100F500080221202E16991421ED0022B00D16FE083
:100F60005ED9042B00D179E0082B00D084E06368BF
:100F7000580880231B029C4660446168FFF7C4F850
:100F800023680004000CD86000202EE00423DFE773
:100F90000823DDE70223DBE7022B27D00FD9042B40
:100FA0002FD0082B39D16368580880235B029C46F8
:100FB00060446168FFF7A8F883B200200CE0002BC2
:100FC0002BD1FFF7FBFE400063685B08C018616827
:100FD000FFF79AF883B200200F22190091435B10AB
:100FE000083A13400B432268D36010BD6368580869
:100FF000264B9C4660446168FFF786F883B2002068
:10100000EAE7FFF7F3FD400063685B08C01861681A
:10101000FFF77AF883B20020DEE701200023DBE748
:10102000002B29D1FFF7CAFE63685B08C01861680E
:10103000FFF76AF823680004000CD8600020D4E7AA
:1010400063685808124B9C4660446168FFF75CF87F
:1010500023680004000CD8600020C6E7FFF7C6FD37
:1010600063685B08C0186168FFF74EF823680004E6
:10107000000CD8600020B8E70120B6E7F369FFFF55
:10108000FFCFFFFFFFF4FFFF001002400024F40039
:1010900000127A00436ADB0706D5026853682C49C0
:1010A0000B40816A0B435360436A9B0706D5026875
:1010B000536828490B40C16A0B435360436A5B077E
:1010C00006D50268536824490B40016B0B435360FB
:1010D000436A1B0706D50268536820490B40416BE1
:1010E0000B435360436ADB0606D5026893681C49CC
:1010F0000B40816B0B439360436A9B0606D50268E5
:10110000936818490B40C16B0B439360436A5B06BD
:101110000BD50268536814490B40016C0B435360B4
:1011200080235B03026C9A420AD0436A1B0606D5F1
:10113000026853680D490B40816C0B435360704744
:10114000026853680A490B40416C0B435360ECE75B
:10115000FFFFFDFFFFFFFEFFFFFFFBFFFF7FFFFF26
:10116000FFEFFFFFFFDFFFFFFFFFEFFFFFFFF7FFD7
:10117000FFFF9FFFF0B5C64600B506000C00170044
:101180009846069D3368DB6923401B1B5A42534136
:10119000BB421ED16B1CF5D0002D05D0FFF76AF8BD
:1011A0004346C01AA842EDD9326813680B490B4078
:1011B000136032689368A331FF318B43936020231F
:1011C0006922B3540132B35448330022F25403204D
:1011D00000E0002004BC9046F0BDC0465FFEFFFF6B
:1011E00030B583B004000023C366FFF743F8050061
:1011F0002368174A93420AD020236922A35401325C
:10120000A35448330022E254002003B030BD1B68D1
:101210001B0710D423681B685B07EDD580210D4B9D
:1012200000932B000022C9032000FFF7A3FF002832
:10123000E2D00320E9E78021064B0093030000225F
:1012400089032000FFF796FF0028E3D00320DCE7A6
:1012500000380140FFFFFF0110B5041E30D06923A4
:10126000C35C002B22D069232422E2542268136835
:1012700001218B4313602000FFF73CFE012814D0AE
:10128000636A002B18D1226853680E490B405360E3
:10129000226893682A218B43936022681368293956
:1012A0000B4313602000FFF79BFF10BD6833002243
:1012B000C25400F0ADF9D6E72000FFF7EBFEE2E7FD
:1012C0000120F2E7FFB7FFFF30B589B0184B59692D
:1012D0008020C003014359615A6902400092009A7C
:1012E000596980208002014359615A690240019284
:1012F000019A5A698021C9020A435A615B690B400D
:101300000293029B8025ED009024E4050022290031
:101310002000FFF73BFA0395012304930023059374
:10132000069303A92000FFF771F909B030BDC0464C
:1013300000100240FEE7000000B585B04348444B72
:101340000360002343608360C360012202610421C3
:1013500041618361C36103624362C221FF318162E3
:10136000C36203634263FEF78BFF002847D100236B
:10137000019380235B01029380235B05039301A902
:101380003248FFF73BF800283DD10123019301A922
:101390002E48FFF733F8002839D10423019301A91F
:1013A0002A48FFF72BF8002835D10523019301A91E
:1013B0002648FFF723F8002831D10623019301A91D
:1013C0002248FFF71BF800282DD10723019301A91C
:1013D0001E48FFF713F8002829D10923019301A91A
:1013E0001A48FFF70BF8002825D11023019301A913
:1013F0001648FFF703F8002822D105B000BDCB2125
:101400001448FFF797FFD5211248FFF793FFDD211E
:101410001048FFF78FFFE5210E48FFF78BFFED2106
:101420000C48FFF787FFF5210A48FFF783FFFD21EE
:101430000848FFF77FFF0621FF310648FFF77AFFD4
:101440000E21FF310348FFF775FFC04694000020CE
:1014500000240140BC17000810B51048104B036071
:1014600096231B02436000238360C36003610C2248
:1014700042618361C36103623033436280235B0155
:10148000836380239B01C363FFF7E6FE002800D13E
:1014900010BD922149000348FFF74CFF24000020B3
:1014A00000380140BC17000800B595B0112308931F
:1014B000103B09930D930F330E930E3B1093802333
:1014C0005B02119380235B0312930023139308A8FC
:1014D000FFF762F9002828D107230493053B059301
:1014E000002306930793012104A8FFF7B7FB002808
:1014F0001FD101230093002302936846FFF76EFC7F
:1015000000281AD1FFF754FCFA218900FEF7FCFDF0
:10151000FFF74AF80420FFF763F8012000220021BA
:101520004042FFF711F815B000BD90210548FFF7C4
:1015300001FF9D210348FFF7FDFEA4210148FFF7AD
:10154000F9FEC046BC17000810B5FEF77BFEFFF79A
:10155000ABFFFFF7B9FEFFF7EFFEFFF77DFFFEE7FA
:1015600000B583B0124B99690122114399619969C1
:101570000A400092009ADA69802149050A43DA613B
:10158000DB690B400193019B0520002200214042B2
:10159000FEF7DAFF0220002200214042FEF7D4FFCE
:1015A0000120002200214042FEF7CEFF03B000BD23
:1015B0000010024030B587B00268124B9A4201D049
:1015C00007B030BD104A91698020800001439161CD
:1015D000936903400093009BF32301930325029535
:1015E000002403947138FF3801A9C005FFF70EF8F5
:1015F000022301930295039401A90448FFF706F81A
:10160000DEE7C0460024014000100240000400480C
:1016100000B587B002680F4B9A4201D007B000BDF9
:101620000D4A91698020C001014391619369034093
:101630000093009B0C2301930A3B02930023039326
:1016400003330493023B0593902001A9C005FEF7E4
:10165000DDFFE3E700380140001002407047FEE77D
:101660007047704710B5FEF7FDFDFEF7CAFF10BDCD
:10167000114B1A6801210A431A605A680F48024048
:101680005A601A680E4802401A601A680D480240F3
:101690001A605A680C4802405A60DA6A0F20824386
:1016A000DA621A6B094802401A635A6B8A435A631A
:1016B00000229A607047C046001002400CB8FF0834
:1016C000FFFFF6FEFFFFFBFFFFFFC0FFECFEFFFF8B
:1016D0000D4885460D480E490E4A002302E0D458B5
:1016E000C4500433C4188C42F9D30B4A0B4C00236A
:1016F00001E013600432A242FBD3FFF7B9FF00F010
:1017000011F8FFF721FFFEE7001000200000002085
:1017100004000020D417000804000020E00000208E
:10172000FEE7000070B500260C4D0D4C641BA410A4
:10173000A64209D1002600F019F80A4D0A4C641B94
:10174000A410A64205D170BDB300EB5898470136EE
:10175000EEE7B300EB5898470136F2E7CC170008E4
:10176000CC170008CC170008D0170008F8B5C04601
:10177000F8BC08BC9E467047F8B5C046F8BC08BC2B
:041780009E467047CA
:1017840002030405060708090A0B0C0D0E0F1010BE
:101794000102030405060708090A0B0C0D0E0F10BD
:1017A400000000000000000001020304060708090D
:1017B40000000000010203042E2E2F5372632F6DCC
:0817C40061696E2E6300000054
:0417CC00E900000828
:0417D000C10000084C
:0417D40000127A0085
:04000005080016D108
:00000001FF
